{
  "_format": "hh-sol-artifact-1",
  "contractName": "MonoNFT",
  "sourceName": "contracts/Token.sol",
  "abi": [
    {
      "inputs": [
        {
          "internalType": "address",
          "name": "_marketplaceAddress",
          "type": "address"
        }
      ],
      "stateMutability": "nonpayable",
      "type": "constructor"
    },
    {
      "anonymous": false,
      "inputs": [
        {
          "indexed": true,
          "internalType": "address",
          "name": "owner",
          "type": "address"
        },
        {
          "indexed": true,
          "internalType": "address",
          "name": "approved",
          "type": "address"
        },
        {
          "indexed": true,
          "internalType": "uint256",
          "name": "tokenId",
          "type": "uint256"
        }
      ],
      "name": "Approval",
      "type": "event"
    },
    {
      "anonymous": false,
      "inputs": [
        {
          "indexed": true,
          "internalType": "address",
          "name": "owner",
          "type": "address"
        },
        {
          "indexed": true,
          "internalType": "address",
          "name": "operator",
          "type": "address"
        },
        {
          "indexed": false,
          "internalType": "bool",
          "name": "approved",
          "type": "bool"
        }
      ],
      "name": "ApprovalForAll",
      "type": "event"
    },
    {
      "anonymous": false,
      "inputs": [
        {
          "indexed": false,
          "internalType": "uint256",
          "name": "_fromTokenId",
          "type": "uint256"
        },
        {
          "indexed": false,
          "internalType": "uint256",
          "name": "_toTokenId",
          "type": "uint256"
        }
      ],
      "name": "BatchMetadataUpdate",
      "type": "event"
    },
    {
      "anonymous": false,
      "inputs": [
        {
          "indexed": false,
          "internalType": "uint256",
          "name": "_tokenId",
          "type": "uint256"
        }
      ],
      "name": "MetadataUpdate",
      "type": "event"
    },
    {
      "anonymous": false,
      "inputs": [
        {
          "indexed": true,
          "internalType": "address",
          "name": "from",
          "type": "address"
        },
        {
          "indexed": true,
          "internalType": "address",
          "name": "to",
          "type": "address"
        },
        {
          "indexed": true,
          "internalType": "uint256",
          "name": "tokenId",
          "type": "uint256"
        }
      ],
      "name": "Transfer",
      "type": "event"
    },
    {
      "inputs": [
        {
          "internalType": "address",
          "name": "to",
          "type": "address"
        },
        {
          "internalType": "uint256",
          "name": "tokenId",
          "type": "uint256"
        }
      ],
      "name": "approve",
      "outputs": [],
      "stateMutability": "nonpayable",
      "type": "function"
    },
    {
      "inputs": [
        {
          "internalType": "address",
          "name": "owner",
          "type": "address"
        }
      ],
      "name": "balanceOf",
      "outputs": [
        {
          "internalType": "uint256",
          "name": "",
          "type": "uint256"
        }
      ],
      "stateMutability": "view",
      "type": "function"
    },
    {
      "inputs": [
        {
          "internalType": "uint256",
          "name": "tokenId",
          "type": "uint256"
        }
      ],
      "name": "getApproved",
      "outputs": [
        {
          "internalType": "address",
          "name": "",
          "type": "address"
        }
      ],
      "stateMutability": "view",
      "type": "function"
    },
    {
      "inputs": [
        {
          "internalType": "address",
          "name": "to",
          "type": "address"
        }
      ],
      "name": "giveAway",
      "outputs": [
        {
          "internalType": "uint256",
          "name": "",
          "type": "uint256"
        }
      ],
      "stateMutability": "nonpayable",
      "type": "function"
    },
    {
      "inputs": [
        {
          "internalType": "address",
          "name": "owner",
          "type": "address"
        },
        {
          "internalType": "address",
          "name": "operator",
          "type": "address"
        }
      ],
      "name": "isApprovedForAll",
      "outputs": [
        {
          "internalType": "bool",
          "name": "",
          "type": "bool"
        }
      ],
      "stateMutability": "view",
      "type": "function"
    },
    {
      "inputs": [],
      "name": "marketplaceAddress",
      "outputs": [
        {
          "internalType": "address",
          "name": "",
          "type": "address"
        }
      ],
      "stateMutability": "view",
      "type": "function"
    },
    {
      "inputs": [],
      "name": "name",
      "outputs": [
        {
          "internalType": "string",
          "name": "",
          "type": "string"
        }
      ],
      "stateMutability": "view",
      "type": "function"
    },
    {
      "inputs": [
        {
          "internalType": "uint256",
          "name": "tokenId",
          "type": "uint256"
        }
      ],
      "name": "ownerOf",
      "outputs": [
        {
          "internalType": "address",
          "name": "",
          "type": "address"
        }
      ],
      "stateMutability": "view",
      "type": "function"
    },
    {
      "inputs": [
        {
          "internalType": "address",
          "name": "from",
          "type": "address"
        },
        {
          "internalType": "address",
          "name": "to",
          "type": "address"
        },
        {
          "internalType": "uint256",
          "name": "tokenId",
          "type": "uint256"
        }
      ],
      "name": "safeTransferFrom",
      "outputs": [],
      "stateMutability": "nonpayable",
      "type": "function"
    },
    {
      "inputs": [
        {
          "internalType": "address",
          "name": "from",
          "type": "address"
        },
        {
          "internalType": "address",
          "name": "to",
          "type": "address"
        },
        {
          "internalType": "uint256",
          "name": "tokenId",
          "type": "uint256"
        },
        {
          "internalType": "bytes",
          "name": "data",
          "type": "bytes"
        }
      ],
      "name": "safeTransferFrom",
      "outputs": [],
      "stateMutability": "nonpayable",
      "type": "function"
    },
    {
      "inputs": [
        {
          "internalType": "address",
          "name": "operator",
          "type": "address"
        },
        {
          "internalType": "bool",
          "name": "approved",
          "type": "bool"
        }
      ],
      "name": "setApprovalForAll",
      "outputs": [],
      "stateMutability": "nonpayable",
      "type": "function"
    },
    {
      "inputs": [
        {
          "internalType": "bytes4",
          "name": "interfaceId",
          "type": "bytes4"
        }
      ],
      "name": "supportsInterface",
      "outputs": [
        {
          "internalType": "bool",
          "name": "",
          "type": "bool"
        }
      ],
      "stateMutability": "view",
      "type": "function"
    },
    {
      "inputs": [],
      "name": "symbol",
      "outputs": [
        {
          "internalType": "string",
          "name": "",
          "type": "string"
        }
      ],
      "stateMutability": "view",
      "type": "function"
    },
    {
      "inputs": [
        {
          "internalType": "uint256",
          "name": "index",
          "type": "uint256"
        }
      ],
      "name": "tokenByIndex",
      "outputs": [
        {
          "internalType": "uint256",
          "name": "",
          "type": "uint256"
        }
      ],
      "stateMutability": "view",
      "type": "function"
    },
    {
      "inputs": [
        {
          "internalType": "address",
          "name": "owner",
          "type": "address"
        },
        {
          "internalType": "uint256",
          "name": "index",
          "type": "uint256"
        }
      ],
      "name": "tokenOfOwnerByIndex",
      "outputs": [
        {
          "internalType": "uint256",
          "name": "",
          "type": "uint256"
        }
      ],
      "stateMutability": "view",
      "type": "function"
    },
    {
      "inputs": [
        {
          "internalType": "uint256",
          "name": "tokenId",
          "type": "uint256"
        }
      ],
      "name": "tokenURI",
      "outputs": [
        {
          "internalType": "string",
          "name": "",
          "type": "string"
        }
      ],
      "stateMutability": "view",
      "type": "function"
    },
    {
      "inputs": [],
      "name": "totalSupply",
      "outputs": [
        {
          "internalType": "uint256",
          "name": "",
          "type": "uint256"
        }
      ],
      "stateMutability": "view",
      "type": "function"
    },
    {
      "inputs": [
        {
          "internalType": "address",
          "name": "from",
          "type": "address"
        },
        {
          "internalType": "address",
          "name": "to",
          "type": "address"
        },
        {
          "internalType": "uint256",
          "name": "tokenId",
          "type": "uint256"
        }
      ],
      "name": "transferFrom",
      "outputs": [],
      "stateMutability": "nonpayable",
      "type": "function"
    }
  ],
  "bytecode": "0x60806040523480156200001157600080fd5b5060405162003b2538038062003b2583398181016040528101906200003791906200017b565b6040518060400160405280600781526020017f4d6f6e6f4e4654000000000000000000000000000000000000000000000000008152506040518060400160405280600481526020017f4d4f4e4f000000000000000000000000000000000000000000000000000000008152508160009081620000b4919062000427565b508060019081620000c6919062000427565b50505080600b60006101000a81548173ffffffffffffffffffffffffffffffffffffffff021916908373ffffffffffffffffffffffffffffffffffffffff160217905550506200050e565b600080fd5b600073ffffffffffffffffffffffffffffffffffffffff82169050919050565b6000620001438262000116565b9050919050565b620001558162000136565b81146200016157600080fd5b50565b60008151905062000175816200014a565b92915050565b60006020828403121562000194576200019362000111565b5b6000620001a48482850162000164565b91505092915050565b600081519050919050565b7f4e487b7100000000000000000000000000000000000000000000000000000000600052604160045260246000fd5b7f4e487b7100000000000000000000000000000000000000000000000000000000600052602260045260246000fd5b600060028204905060018216806200022f57607f821691505b602082108103620002455762000244620001e7565b5b50919050565b60008190508160005260206000209050919050565b60006020601f8301049050919050565b600082821b905092915050565b600060088302620002af7fffffffffffffffffffffffffffffffffffffffffffffffffffffffffffffffff8262000270565b620002bb868362000270565b95508019841693508086168417925050509392505050565b6000819050919050565b6000819050919050565b60006200030862000302620002fc84620002d3565b620002dd565b620002d3565b9050919050565b6000819050919050565b6200032483620002e7565b6200033c62000333826200030f565b8484546200027d565b825550505050565b600090565b6200035362000344565b6200036081848462000319565b505050565b5b8181101562000388576200037c60008262000349565b60018101905062000366565b5050565b601f821115620003d757620003a1816200024b565b620003ac8462000260565b81016020851015620003bc578190505b620003d4620003cb8562000260565b83018262000365565b50505b505050565b600082821c905092915050565b6000620003fc60001984600802620003dc565b1980831691505092915050565b6000620004178383620003e9565b9150826002028217905092915050565b6200043282620001ad565b67ffffffffffffffff8111156200044e576200044d620001b8565b5b6200045a825462000216565b620004678282856200038c565b600060209050601f8311600181146200049f57600084156200048a578287015190505b62000496858262000409565b86555062000506565b601f198416620004af866200024b565b60005b82811015620004d957848901518255600182019150602085019450602081019050620004b2565b86831015620004f95784890151620004f5601f891682620003e9565b8355505b6001600288020188555050505b505050505050565b613607806200051e6000396000f3fe608060405234801561001057600080fd5b50600436106101165760003560e01c80636352211e116100a2578063a22cb46511610071578063a22cb46514610319578063b88d4fde14610335578063c87b56dd14610351578063daa17f4914610381578063e985e9c51461039f57610116565b80636352211e1461026b57806370a082311461029b57806395d89b41146102cb5780639e240785146102e957610116565b806318160ddd116100e957806318160ddd146101b557806323b872dd146101d35780632f745c59146101ef57806342842e0e1461021f5780634f6ccce71461023b57610116565b806301ffc9a71461011b57806306fdde031461014b578063081812fc14610169578063095ea7b314610199575b600080fd5b610135600480360381019061013091906122e5565b6103cf565b604051610142919061232d565b60405180910390f35b6101536103e1565b60405161016091906123d8565b60405180910390f35b610183600480360381019061017e9190612430565b610473565b604051610190919061249e565b60405180910390f35b6101b360048036038101906101ae91906124e5565b6104b9565b005b6101bd6105d0565b6040516101ca9190612534565b60405180910390f35b6101ed60048036038101906101e8919061254f565b6105dd565b005b610209600480360381019061020491906124e5565b61063d565b6040516102169190612534565b60405180910390f35b6102396004803603810190610234919061254f565b6106e2565b005b61025560048036038101906102509190612430565b610702565b6040516102629190612534565b60405180910390f35b61028560048036038101906102809190612430565b610773565b604051610292919061249e565b60405180910390f35b6102b560048036038101906102b091906125a2565b6107f9565b6040516102c29190612534565b60405180910390f35b6102d36108b0565b6040516102e091906123d8565b60405180910390f35b61030360048036038101906102fe91906125a2565b610942565b6040516103109190612534565b60405180910390f35b610333600480360381019061032e91906125fb565b610a03565b005b61034f600480360381019061034a9190612770565b610a19565b005b61036b60048036038101906103669190612430565b610a7b565b60405161037891906123d8565b60405180910390f35b610389610a8d565b604051610396919061249e565b60405180910390f35b6103b960048036038101906103b491906127f3565b610ab3565b6040516103c6919061232d565b60405180910390f35b60006103da82610b47565b9050919050565b6060600080546103f090612862565b80601f016020809104026020016040519081016040528092919081815260200182805461041c90612862565b80156104695780601f1061043e57610100808354040283529160200191610469565b820191906000526020600020905b81548152906001019060200180831161044c57829003601f168201915b5050505050905090565b600061047e82610bc1565b6004600083815260200190815260200160002060009054906101000a900473ffffffffffffffffffffffffffffffffffffffff169050919050565b60006104c482610773565b90508073ffffffffffffffffffffffffffffffffffffffff168373ffffffffffffffffffffffffffffffffffffffff1603610534576040517f08c379a000000000000000000000000000000000000000000000000000000000815260040161052b90612905565b60405180910390fd5b8073ffffffffffffffffffffffffffffffffffffffff16610553610c0c565b73ffffffffffffffffffffffffffffffffffffffff16148061058257506105818161057c610c0c565b610ab3565b5b6105c1576040517f08c379a00000000000000000000000000000000000000000000000000000000081526004016105b890612997565b60405180910390fd5b6105cb8383610c14565b505050565b6000600980549050905090565b6105ee6105e8610c0c565b82610ccd565b61062d576040517f08c379a000000000000000000000000000000000000000000000000000000000815260040161062490612a29565b60405180910390fd5b610638838383610d62565b505050565b6000610648836107f9565b8210610689576040517f08c379a000000000000000000000000000000000000000000000000000000000815260040161068090612abb565b60405180910390fd5b600760008473ffffffffffffffffffffffffffffffffffffffff1673ffffffffffffffffffffffffffffffffffffffff168152602001908152602001600020600083815260200190815260200160002054905092915050565b6106fd83838360405180602001604052806000815250610a19565b505050565b600061070c6105d0565b821061074d576040517f08c379a000000000000000000000000000000000000000000000000000000000815260040161074490612b4d565b60405180910390fd5b6009828154811061076157610760612b6d565b5b90600052602060002001549050919050565b60008061077f8361105b565b9050600073ffffffffffffffffffffffffffffffffffffffff168173ffffffffffffffffffffffffffffffffffffffff16036107f0576040517f08c379a00000000000000000000000000000000000000000000000000000000081526004016107e790612be8565b60405180910390fd5b80915050919050565b60008073ffffffffffffffffffffffffffffffffffffffff168273ffffffffffffffffffffffffffffffffffffffff1603610869576040517f08c379a000000000000000000000000000000000000000000000000000000000815260040161086090612c7a565b60405180910390fd5b600360008373ffffffffffffffffffffffffffffffffffffffff1673ffffffffffffffffffffffffffffffffffffffff168152602001908152602001600020549050919050565b6060600180546108bf90612862565b80601f01602080910402602001604051908101604052809291908181526020018280546108eb90612862565b80156109385780601f1061090d57610100808354040283529160200191610938565b820191906000526020600020905b81548152906001019060200180831161091b57829003601f168201915b5050505050905090565b60008061094f600c611098565b905060006040518060600160405280602a81526020016135a8602a9139905061097884836110a6565b61098282826110c4565b6109af600b60009054906101000a900473ffffffffffffffffffffffffffffffffffffffff166001610a03565b6109b9600c611168565b6109f96040518060400160405280601581526020017f4d696e74656420746f6b656e20257320746f2025730000000000000000000000815250838661117e565b8192505050919050565b610a15610a0e610c0c565b838361121d565b5050565b610a2a610a24610c0c565b83610ccd565b610a69576040517f08c379a0000000000000000000000000000000000000000000000000000000008152600401610a6090612a29565b60405180910390fd5b610a7584848484611389565b50505050565b6060610a86826113e5565b9050919050565b600b60009054906101000a900473ffffffffffffffffffffffffffffffffffffffff1681565b6000600560008473ffffffffffffffffffffffffffffffffffffffff1673ffffffffffffffffffffffffffffffffffffffff16815260200190815260200160002060008373ffffffffffffffffffffffffffffffffffffffff1673ffffffffffffffffffffffffffffffffffffffff16815260200190815260200160002060009054906101000a900460ff16905092915050565b60007f780e9d63000000000000000000000000000000000000000000000000000000007bffffffffffffffffffffffffffffffffffffffffffffffffffffffff1916827bffffffffffffffffffffffffffffffffffffffffffffffffffffffff19161480610bba5750610bb9826114f7565b5b9050919050565b610bca81611558565b610c09576040517f08c379a0000000000000000000000000000000000000000000000000000000008152600401610c0090612be8565b60405180910390fd5b50565b600033905090565b816004600083815260200190815260200160002060006101000a81548173ffffffffffffffffffffffffffffffffffffffff021916908373ffffffffffffffffffffffffffffffffffffffff160217905550808273ffffffffffffffffffffffffffffffffffffffff16610c8783610773565b73ffffffffffffffffffffffffffffffffffffffff167f8c5be1e5ebec7d5bd14f71427d1e84f3dd0314c0f7b2291e5b200ac8c7c3b92560405160405180910390a45050565b600080610cd983610773565b90508073ffffffffffffffffffffffffffffffffffffffff168473ffffffffffffffffffffffffffffffffffffffff161480610d1b5750610d1a8185610ab3565b5b80610d5957508373ffffffffffffffffffffffffffffffffffffffff16610d4184610473565b73ffffffffffffffffffffffffffffffffffffffff16145b91505092915050565b8273ffffffffffffffffffffffffffffffffffffffff16610d8282610773565b73ffffffffffffffffffffffffffffffffffffffff1614610dd8576040517f08c379a0000000000000000000000000000000000000000000000000000000008152600401610dcf90612d0c565b60405180910390fd5b600073ffffffffffffffffffffffffffffffffffffffff168273ffffffffffffffffffffffffffffffffffffffff1603610e47576040517f08c379a0000000000000000000000000000000000000000000000000000000008152600401610e3e90612d9e565b60405180910390fd5b610e548383836001611599565b8273ffffffffffffffffffffffffffffffffffffffff16610e7482610773565b73ffffffffffffffffffffffffffffffffffffffff1614610eca576040517f08c379a0000000000000000000000000000000000000000000000000000000008152600401610ec190612d0c565b60405180910390fd5b6004600082815260200190815260200160002060006101000a81549073ffffffffffffffffffffffffffffffffffffffff02191690556001600360008573ffffffffffffffffffffffffffffffffffffffff1673ffffffffffffffffffffffffffffffffffffffff168152602001908152602001600020600082825403925050819055506001600360008473ffffffffffffffffffffffffffffffffffffffff1673ffffffffffffffffffffffffffffffffffffffff16815260200190815260200160002060008282540192505081905550816002600083815260200190815260200160002060006101000a81548173ffffffffffffffffffffffffffffffffffffffff021916908373ffffffffffffffffffffffffffffffffffffffff160217905550808273ffffffffffffffffffffffffffffffffffffffff168473ffffffffffffffffffffffffffffffffffffffff167fddf252ad1be2c89b69c2b068fc378daa952ba7f163c4a11628f55a4df523b3ef60405160405180910390a461105683838360016115ab565b505050565b60006002600083815260200190815260200160002060009054906101000a900473ffffffffffffffffffffffffffffffffffffffff169050919050565b600081600001549050919050565b6110c08282604051806020016040528060008152506115b1565b5050565b6110cd82611558565b61110c576040517f08c379a000000000000000000000000000000000000000000000000000000000815260040161110390612e30565b60405180910390fd5b8060066000848152602001908152602001600020908161112c9190612ffc565b507ff8e1a15aba9398e019f0b49df1a4fde98ee17ae345cb5f6b5e2c27f5033e8ce78260405161115c9190612534565b60405180910390a15050565b6001816000016000828254019250508190555050565b611218838383604051602401611196939291906130ce565b6040516020818303038152906040527f1c7ec448000000000000000000000000000000000000000000000000000000007bffffffffffffffffffffffffffffffffffffffffffffffffffffffff19166020820180517bffffffffffffffffffffffffffffffffffffffffffffffffffffffff838183161783525050505061160c565b505050565b8173ffffffffffffffffffffffffffffffffffffffff168373ffffffffffffffffffffffffffffffffffffffff160361128b576040517f08c379a000000000000000000000000000000000000000000000000000000000815260040161128290613158565b60405180910390fd5b80600560008573ffffffffffffffffffffffffffffffffffffffff1673ffffffffffffffffffffffffffffffffffffffff16815260200190815260200160002060008473ffffffffffffffffffffffffffffffffffffffff1673ffffffffffffffffffffffffffffffffffffffff16815260200190815260200160002060006101000a81548160ff0219169083151502179055508173ffffffffffffffffffffffffffffffffffffffff168373ffffffffffffffffffffffffffffffffffffffff167f17307eab39ab6107e8899845ad3d59bd9653f200f220920489ca2b5937696c318360405161137c919061232d565b60405180910390a3505050565b611394848484610d62565b6113a084848484611626565b6113df576040517f08c379a00000000000000000000000000000000000000000000000000000000081526004016113d6906131ea565b60405180910390fd5b50505050565b60606113f082610bc1565b600060066000848152602001908152602001600020805461141090612862565b80601f016020809104026020016040519081016040528092919081815260200182805461143c90612862565b80156114895780601f1061145e57610100808354040283529160200191611489565b820191906000526020600020905b81548152906001019060200180831161146c57829003601f168201915b50505050509050600061149a6117ad565b905060008151036114af5781925050506114f2565b6000825111156114e45780826040516020016114cc929190613246565b604051602081830303815290604052925050506114f2565b6114ed846117c4565b925050505b919050565b6000634906490660e01b7bffffffffffffffffffffffffffffffffffffffffffffffffffffffff1916827bffffffffffffffffffffffffffffffffffffffffffffffffffffffff1916148061155157506115508261182c565b5b9050919050565b60008073ffffffffffffffffffffffffffffffffffffffff1661157a8361105b565b73ffffffffffffffffffffffffffffffffffffffff1614159050919050565b6115a58484848461190e565b50505050565b50505050565b6115bb8383611a6c565b6115c86000848484611626565b611607576040517f08c379a00000000000000000000000000000000000000000000000000000000081526004016115fe906131ea565b60405180910390fd5b505050565b6116238161161b611c89611caa565b63ffffffff16565b50565b60006116478473ffffffffffffffffffffffffffffffffffffffff16611cb5565b156117a0578373ffffffffffffffffffffffffffffffffffffffff1663150b7a02611670610c0c565b8786866040518563ffffffff1660e01b815260040161169294939291906132bf565b6020604051808303816000875af19250505080156116ce57506040513d601f19601f820116820180604052508101906116cb9190613320565b60015b611750573d80600081146116fe576040519150601f19603f3d011682016040523d82523d6000602084013e611703565b606091505b506000815103611748576040517f08c379a000000000000000000000000000000000000000000000000000000000815260040161173f906131ea565b60405180910390fd5b805181602001fd5b63150b7a0260e01b7bffffffffffffffffffffffffffffffffffffffffffffffffffffffff1916817bffffffffffffffffffffffffffffffffffffffffffffffffffffffff1916149150506117a5565b600190505b949350505050565b606060405180602001604052806000815250905090565b60606117cf82610bc1565b60006117d96117ad565b905060008151116117f95760405180602001604052806000815250611824565b8061180384611cd8565b604051602001611814929190613246565b6040516020818303038152906040525b915050919050565b60007f80ac58cd000000000000000000000000000000000000000000000000000000007bffffffffffffffffffffffffffffffffffffffffffffffffffffffff1916827bffffffffffffffffffffffffffffffffffffffffffffffffffffffff191614806118f757507f5b5e139f000000000000000000000000000000000000000000000000000000007bffffffffffffffffffffffffffffffffffffffffffffffffffffffff1916827bffffffffffffffffffffffffffffffffffffffffffffffffffffffff1916145b80611907575061190682611da6565b5b9050919050565b61191a84848484611e10565b600181111561195e576040517f08c379a0000000000000000000000000000000000000000000000000000000008152600401611955906133bf565b60405180910390fd5b6000829050600073ffffffffffffffffffffffffffffffffffffffff168573ffffffffffffffffffffffffffffffffffffffff16036119a5576119a081611e16565b6119e4565b8373ffffffffffffffffffffffffffffffffffffffff168573ffffffffffffffffffffffffffffffffffffffff16146119e3576119e28582611e5f565b5b5b600073ffffffffffffffffffffffffffffffffffffffff168473ffffffffffffffffffffffffffffffffffffffff1603611a2657611a2181611fcc565b611a65565b8473ffffffffffffffffffffffffffffffffffffffff168473ffffffffffffffffffffffffffffffffffffffff1614611a6457611a63848261209d565b5b5b5050505050565b600073ffffffffffffffffffffffffffffffffffffffff168273ffffffffffffffffffffffffffffffffffffffff1603611adb576040517f08c379a0000000000000000000000000000000000000000000000000000000008152600401611ad29061342b565b60405180910390fd5b611ae481611558565b15611b24576040517f08c379a0000000000000000000000000000000000000000000000000000000008152600401611b1b90613497565b60405180910390fd5b611b32600083836001611599565b611b3b81611558565b15611b7b576040517f08c379a0000000000000000000000000000000000000000000000000000000008152600401611b7290613497565b60405180910390fd5b6001600360008473ffffffffffffffffffffffffffffffffffffffff1673ffffffffffffffffffffffffffffffffffffffff16815260200190815260200160002060008282540192505081905550816002600083815260200190815260200160002060006101000a81548173ffffffffffffffffffffffffffffffffffffffff021916908373ffffffffffffffffffffffffffffffffffffffff160217905550808273ffffffffffffffffffffffffffffffffffffffff16600073ffffffffffffffffffffffffffffffffffffffff167fddf252ad1be2c89b69c2b068fc378daa952ba7f163c4a11628f55a4df523b3ef60405160405180910390a4611c856000838360016115ab565b5050565b60006a636f6e736f6c652e6c6f679050600080835160208501845afa505050565b61226f819050919050565b6000808273ffffffffffffffffffffffffffffffffffffffff163b119050919050565b606060006001611ce78461211c565b01905060008167ffffffffffffffff811115611d0657611d05612645565b5b6040519080825280601f01601f191660200182016040528015611d385781602001600182028036833780820191505090505b509050600082602001820190505b600115611d9b578080600190039150507f3031323334353637383961626364656600000000000000000000000000000000600a86061a8153600a8581611d8f57611d8e6134b7565b5b04945060008503611d46575b819350505050919050565b60007f01ffc9a7000000000000000000000000000000000000000000000000000000007bffffffffffffffffffffffffffffffffffffffffffffffffffffffff1916827bffffffffffffffffffffffffffffffffffffffffffffffffffffffff1916149050919050565b50505050565b600980549050600a600083815260200190815260200160002081905550600981908060018154018082558091505060019003906000526020600020016000909190919091505550565b60006001611e6c846107f9565b611e769190613515565b9050600060086000848152602001908152602001600020549050818114611f5b576000600760008673ffffffffffffffffffffffffffffffffffffffff1673ffffffffffffffffffffffffffffffffffffffff168152602001908152602001600020600084815260200190815260200160002054905080600760008773ffffffffffffffffffffffffffffffffffffffff1673ffffffffffffffffffffffffffffffffffffffff168152602001908152602001600020600084815260200190815260200160002081905550816008600083815260200190815260200160002081905550505b6008600084815260200190815260200160002060009055600760008573ffffffffffffffffffffffffffffffffffffffff1673ffffffffffffffffffffffffffffffffffffffff16815260200190815260200160002060008381526020019081526020016000206000905550505050565b60006001600980549050611fe09190613515565b90506000600a60008481526020019081526020016000205490506000600983815481106120105761200f612b6d565b5b90600052602060002001549050806009838154811061203257612031612b6d565b5b906000526020600020018190555081600a600083815260200190815260200160002081905550600a600085815260200190815260200160002060009055600980548061208157612080613549565b5b6001900381819060005260206000200160009055905550505050565b60006120a8836107f9565b905081600760008573ffffffffffffffffffffffffffffffffffffffff1673ffffffffffffffffffffffffffffffffffffffff168152602001908152602001600020600083815260200190815260200160002081905550806008600084815260200190815260200160002081905550505050565b600080600090507a184f03e93ff9f4daa797ed6e38ed64bf6a1f010000000000000000831061217a577a184f03e93ff9f4daa797ed6e38ed64bf6a1f01000000000000000083816121705761216f6134b7565b5b0492506040810190505b6d04ee2d6d415b85acef810000000083106121b7576d04ee2d6d415b85acef810000000083816121ad576121ac6134b7565b5b0492506020810190505b662386f26fc1000083106121e657662386f26fc1000083816121dc576121db6134b7565b5b0492506010810190505b6305f5e100831061220f576305f5e1008381612205576122046134b7565b5b0492506008810190505b612710831061223457612710838161222a576122296134b7565b5b0492506004810190505b60648310612257576064838161224d5761224c6134b7565b5b0492506002810190505b600a8310612266576001810190505b80915050919050565b612277613578565b565b6000604051905090565b600080fd5b600080fd5b60007fffffffff0000000000000000000000000000000000000000000000000000000082169050919050565b6122c28161228d565b81146122cd57600080fd5b50565b6000813590506122df816122b9565b92915050565b6000602082840312156122fb576122fa612283565b5b6000612309848285016122d0565b91505092915050565b60008115159050919050565b61232781612312565b82525050565b6000602082019050612342600083018461231e565b92915050565b600081519050919050565b600082825260208201905092915050565b60005b83811015612382578082015181840152602081019050612367565b60008484015250505050565b6000601f19601f8301169050919050565b60006123aa82612348565b6123b48185612353565b93506123c4818560208601612364565b6123cd8161238e565b840191505092915050565b600060208201905081810360008301526123f2818461239f565b905092915050565b6000819050919050565b61240d816123fa565b811461241857600080fd5b50565b60008135905061242a81612404565b92915050565b60006020828403121561244657612445612283565b5b60006124548482850161241b565b91505092915050565b600073ffffffffffffffffffffffffffffffffffffffff82169050919050565b60006124888261245d565b9050919050565b6124988161247d565b82525050565b60006020820190506124b3600083018461248f565b92915050565b6124c28161247d565b81146124cd57600080fd5b50565b6000813590506124df816124b9565b92915050565b600080604083850312156124fc576124fb612283565b5b600061250a858286016124d0565b925050602061251b8582860161241b565b9150509250929050565b61252e816123fa565b82525050565b60006020820190506125496000830184612525565b92915050565b60008060006060848603121561256857612567612283565b5b6000612576868287016124d0565b9350506020612587868287016124d0565b92505060406125988682870161241b565b9150509250925092565b6000602082840312156125b8576125b7612283565b5b60006125c6848285016124d0565b91505092915050565b6125d881612312565b81146125e357600080fd5b50565b6000813590506125f5816125cf565b92915050565b6000806040838503121561261257612611612283565b5b6000612620858286016124d0565b9250506020612631858286016125e6565b9150509250929050565b600080fd5b600080fd5b7f4e487b7100000000000000000000000000000000000000000000000000000000600052604160045260246000fd5b61267d8261238e565b810181811067ffffffffffffffff8211171561269c5761269b612645565b5b80604052505050565b60006126af612279565b90506126bb8282612674565b919050565b600067ffffffffffffffff8211156126db576126da612645565b5b6126e48261238e565b9050602081019050919050565b82818337600083830152505050565b600061271361270e846126c0565b6126a5565b90508281526020810184848401111561272f5761272e612640565b5b61273a8482856126f1565b509392505050565b600082601f8301126127575761275661263b565b5b8135612767848260208601612700565b91505092915050565b6000806000806080858703121561278a57612789612283565b5b6000612798878288016124d0565b94505060206127a9878288016124d0565b93505060406127ba8782880161241b565b925050606085013567ffffffffffffffff8111156127db576127da612288565b5b6127e787828801612742565b91505092959194509250565b6000806040838503121561280a57612809612283565b5b6000612818858286016124d0565b9250506020612829858286016124d0565b9150509250929050565b7f4e487b7100000000000000000000000000000000000000000000000000000000600052602260045260246000fd5b6000600282049050600182168061287a57607f821691505b60208210810361288d5761288c612833565b5b50919050565b7f4552433732313a20617070726f76616c20746f2063757272656e74206f776e6560008201527f7200000000000000000000000000000000000000000000000000000000000000602082015250565b60006128ef602183612353565b91506128fa82612893565b604082019050919050565b6000602082019050818103600083015261291e816128e2565b9050919050565b7f4552433732313a20617070726f76652063616c6c6572206973206e6f7420746f60008201527f6b656e206f776e6572206f7220617070726f76656420666f7220616c6c000000602082015250565b6000612981603d83612353565b915061298c82612925565b604082019050919050565b600060208201905081810360008301526129b081612974565b9050919050565b7f4552433732313a2063616c6c6572206973206e6f7420746f6b656e206f776e6560008201527f72206f7220617070726f76656400000000000000000000000000000000000000602082015250565b6000612a13602d83612353565b9150612a1e826129b7565b604082019050919050565b60006020820190508181036000830152612a4281612a06565b9050919050565b7f455243373231456e756d657261626c653a206f776e657220696e646578206f7560008201527f74206f6620626f756e6473000000000000000000000000000000000000000000602082015250565b6000612aa5602b83612353565b9150612ab082612a49565b604082019050919050565b60006020820190508181036000830152612ad481612a98565b9050919050565b7f455243373231456e756d657261626c653a20676c6f62616c20696e646578206f60008201527f7574206f6620626f756e64730000000000000000000000000000000000000000602082015250565b6000612b37602c83612353565b9150612b4282612adb565b604082019050919050565b60006020820190508181036000830152612b6681612b2a565b9050919050565b7f4e487b7100000000000000000000000000000000000000000000000000000000600052603260045260246000fd5b7f4552433732313a20696e76616c696420746f6b656e2049440000000000000000600082015250565b6000612bd2601883612353565b9150612bdd82612b9c565b602082019050919050565b60006020820190508181036000830152612c0181612bc5565b9050919050565b7f4552433732313a2061646472657373207a65726f206973206e6f74206120766160008201527f6c6964206f776e65720000000000000000000000000000000000000000000000602082015250565b6000612c64602983612353565b9150612c6f82612c08565b604082019050919050565b60006020820190508181036000830152612c9381612c57565b9050919050565b7f4552433732313a207472616e736665722066726f6d20696e636f72726563742060008201527f6f776e6572000000000000000000000000000000000000000000000000000000602082015250565b6000612cf6602583612353565b9150612d0182612c9a565b604082019050919050565b60006020820190508181036000830152612d2581612ce9565b9050919050565b7f4552433732313a207472616e7366657220746f20746865207a65726f2061646460008201527f7265737300000000000000000000000000000000000000000000000000000000602082015250565b6000612d88602483612353565b9150612d9382612d2c565b604082019050919050565b60006020820190508181036000830152612db781612d7b565b9050919050565b7f45524337323155524953746f726167653a2055524920736574206f66206e6f6e60008201527f6578697374656e7420746f6b656e000000000000000000000000000000000000602082015250565b6000612e1a602e83612353565b9150612e2582612dbe565b604082019050919050565b60006020820190508181036000830152612e4981612e0d565b9050919050565b60008190508160005260206000209050919050565b60006020601f8301049050919050565b600082821b905092915050565b600060088302612eb27fffffffffffffffffffffffffffffffffffffffffffffffffffffffffffffffff82612e75565b612ebc8683612e75565b95508019841693508086168417925050509392505050565b6000819050919050565b6000612ef9612ef4612eef846123fa565b612ed4565b6123fa565b9050919050565b6000819050919050565b612f1383612ede565b612f27612f1f82612f00565b848454612e82565b825550505050565b600090565b612f3c612f2f565b612f47818484612f0a565b505050565b5b81811015612f6b57612f60600082612f34565b600181019050612f4d565b5050565b601f821115612fb057612f8181612e50565b612f8a84612e65565b81016020851015612f99578190505b612fad612fa585612e65565b830182612f4c565b50505b505050565b600082821c905092915050565b6000612fd360001984600802612fb5565b1980831691505092915050565b6000612fec8383612fc2565b9150826002028217905092915050565b61300582612348565b67ffffffffffffffff81111561301e5761301d612645565b5b6130288254612862565b613033828285612f6f565b600060209050601f8311600181146130665760008415613054578287015190505b61305e8582612fe0565b8655506130c6565b601f19841661307486612e50565b60005b8281101561309c57848901518255600182019150602085019450602081019050613077565b868310156130b957848901516130b5601f891682612fc2565b8355505b6001600288020188555050505b505050505050565b600060608201905081810360008301526130e8818661239f565b90506130f76020830185612525565b613104604083018461248f565b949350505050565b7f4552433732313a20617070726f766520746f2063616c6c657200000000000000600082015250565b6000613142601983612353565b915061314d8261310c565b602082019050919050565b6000602082019050818103600083015261317181613135565b9050919050565b7f4552433732313a207472616e7366657220746f206e6f6e20455243373231526560008201527f63656976657220696d706c656d656e7465720000000000000000000000000000602082015250565b60006131d4603283612353565b91506131df82613178565b604082019050919050565b60006020820190508181036000830152613203816131c7565b9050919050565b600081905092915050565b600061322082612348565b61322a818561320a565b935061323a818560208601612364565b80840191505092915050565b60006132528285613215565b915061325e8284613215565b91508190509392505050565b600081519050919050565b600082825260208201905092915050565b60006132918261326a565b61329b8185613275565b93506132ab818560208601612364565b6132b48161238e565b840191505092915050565b60006080820190506132d4600083018761248f565b6132e1602083018661248f565b6132ee6040830185612525565b81810360608301526133008184613286565b905095945050505050565b60008151905061331a816122b9565b92915050565b60006020828403121561333657613335612283565b5b60006133448482850161330b565b91505092915050565b7f455243373231456e756d657261626c653a20636f6e736563757469766520747260008201527f616e7366657273206e6f7420737570706f727465640000000000000000000000602082015250565b60006133a9603583612353565b91506133b48261334d565b604082019050919050565b600060208201905081810360008301526133d88161339c565b9050919050565b7f4552433732313a206d696e7420746f20746865207a65726f2061646472657373600082015250565b6000613415602083612353565b9150613420826133df565b602082019050919050565b6000602082019050818103600083015261344481613408565b9050919050565b7f4552433732313a20746f6b656e20616c7265616479206d696e74656400000000600082015250565b6000613481601c83612353565b915061348c8261344b565b602082019050919050565b600060208201905081810360008301526134b081613474565b9050919050565b7f4e487b7100000000000000000000000000000000000000000000000000000000600052601260045260246000fd5b7f4e487b7100000000000000000000000000000000000000000000000000000000600052601160045260246000fd5b6000613520826123fa565b915061352b836123fa565b9250828203905081811115613543576135426134e6565b5b92915050565b7f4e487b7100000000000000000000000000000000000000000000000000000000600052603160045260246000fd5b7f4e487b7100000000000000000000000000000000000000000000000000000000600052605160045260246000fdfe68747470733a2f2f66616d6f7573666f7865732e636f6d2f6d657461646174612f373737392e6a736f6ea264697066735822122042f9c723a804bb93ef14ff7094874fb4a8117c6e8c21ca767fb910d27e5ded1d64736f6c63430008110033",
  "linkReferences": {},
  "deployedLinkReferences": {}
}