{
  "_format": "hh-sol-artifact-1",
  "contractName": "NFTMarketplace",
  "sourceName": "contracts/Marketplace.sol",
  "abi": [
    {
      "anonymous": false,
      "inputs": [
        {
          "indexed": true,
          "internalType": "address",
          "name": "previousOwner",
          "type": "address"
        },
        {
          "indexed": true,
          "internalType": "address",
          "name": "newOwner",
          "type": "address"
        }
      ],
      "name": "OwnershipTransferred",
      "type": "event"
    },
    {
      "inputs": [
        {
          "internalType": "uint256",
          "name": "listingId",
          "type": "uint256"
        }
      ],
      "name": "buyItem",
      "outputs": [],
      "stateMutability": "payable",
      "type": "function"
    },
    {
      "inputs": [
        {
          "internalType": "uint256",
          "name": "listingId",
          "type": "uint256"
        }
      ],
      "name": "cancelListing",
      "outputs": [],
      "stateMutability": "nonpayable",
      "type": "function"
    },
    {
      "inputs": [],
      "name": "getListingItems",
      "outputs": [
        {
          "components": [
            {
              "internalType": "uint256",
              "name": "tokenId",
              "type": "uint256"
            },
            {
              "internalType": "address",
              "name": "tokenAddress",
              "type": "address"
            },
            {
              "internalType": "address payable",
              "name": "seller",
              "type": "address"
            },
            {
              "internalType": "uint256",
              "name": "price",
              "type": "uint256"
            },
            {
              "internalType": "bool",
              "name": "isSold",
              "type": "bool"
            }
          ],
          "internalType": "struct NFTMarketplace.ListingItem[]",
          "name": "",
          "type": "tuple[]"
        }
      ],
      "stateMutability": "view",
      "type": "function"
    },
    {
      "inputs": [
        {
          "internalType": "address",
          "name": "tokenAddress",
          "type": "address"
        },
        {
          "internalType": "uint256",
          "name": "tokenId",
          "type": "uint256"
        },
        {
          "internalType": "uint256",
          "name": "price",
          "type": "uint256"
        }
      ],
      "name": "listItem",
      "outputs": [],
      "stateMutability": "payable",
      "type": "function"
    },
    {
      "inputs": [
        {
          "internalType": "uint256",
          "name": "",
          "type": "uint256"
        }
      ],
      "name": "listingItems",
      "outputs": [
        {
          "internalType": "uint256",
          "name": "tokenId",
          "type": "uint256"
        },
        {
          "internalType": "address",
          "name": "tokenAddress",
          "type": "address"
        },
        {
          "internalType": "address payable",
          "name": "seller",
          "type": "address"
        },
        {
          "internalType": "uint256",
          "name": "price",
          "type": "uint256"
        },
        {
          "internalType": "bool",
          "name": "isSold",
          "type": "bool"
        }
      ],
      "stateMutability": "view",
      "type": "function"
    },
    {
      "inputs": [],
      "name": "owner",
      "outputs": [
        {
          "internalType": "address",
          "name": "",
          "type": "address"
        }
      ],
      "stateMutability": "view",
      "type": "function"
    },
    {
      "inputs": [],
      "name": "renounceOwnership",
      "outputs": [],
      "stateMutability": "nonpayable",
      "type": "function"
    },
    {
      "inputs": [
        {
          "internalType": "address",
          "name": "newOwner",
          "type": "address"
        }
      ],
      "name": "transferOwnership",
      "outputs": [],
      "stateMutability": "nonpayable",
      "type": "function"
    }
  ],
  "bytecode": "0x608060405234801561001057600080fd5b5061002d61002261003960201b60201c565b61004160201b60201c565b60018081905550610105565b600033905090565b60008060009054906101000a900473ffffffffffffffffffffffffffffffffffffffff169050816000806101000a81548173ffffffffffffffffffffffffffffffffffffffff021916908373ffffffffffffffffffffffffffffffffffffffff1602179055508173ffffffffffffffffffffffffffffffffffffffff168173ffffffffffffffffffffffffffffffffffffffff167f8be0079c531659141344cd1fd0a4f28419497f9722a3daafe3b4186f6b6457e060405160405180910390a35050565b6116cd806101146000396000f3fe60806040526004361061007b5760003560e01c806389bfd38f1161004e57806389bfd38f1461012c5780638da5cb5b14610148578063e7fb74c714610173578063f2fde38b1461018f5761007b565b8063305a67a81461008057806331e3a12e146100a957806336c47a77146100ea578063715018a614610115575b600080fd5b34801561008c57600080fd5b506100a760048036038101906100a29190610e3a565b6101b8565b005b3480156100b557600080fd5b506100d060048036038101906100cb9190610e3a565b6103dc565b6040516100e1959493929190610ef3565b60405180910390f35b3480156100f657600080fd5b506100ff61045f565b60405161010c9190611099565b60405180910390f35b34801561012157600080fd5b5061012a610608565b005b610146600480360381019061014191906110e7565b61061c565b005b34801561015457600080fd5b5061015d61086c565b60405161016a919061113a565b60405180910390f35b61018d60048036038101906101889190610e3a565b610895565b005b34801561019b57600080fd5b506101b660048036038101906101b19190611155565b610a6d565b005b6000600360008381526020019081526020016000209050600015158160040160009054906101000a900460ff16151514610227576040517f08c379a000000000000000000000000000000000000000000000000000000000815260040161021e906111df565b60405180910390fd5b3373ffffffffffffffffffffffffffffffffffffffff168160020160009054906101000a900473ffffffffffffffffffffffffffffffffffffffff1673ffffffffffffffffffffffffffffffffffffffff16146102b9576040517f08c379a00000000000000000000000000000000000000000000000000000000081526004016102b09061124b565b60405180910390fd5b8060010160009054906101000a900473ffffffffffffffffffffffffffffffffffffffff1673ffffffffffffffffffffffffffffffffffffffff166323b872dd303384600001546040518463ffffffff1660e01b815260040161031e9392919061126b565b600060405180830381600087803b15801561033857600080fd5b505af115801561034c573d6000803e3d6000fd5b50505050600360008381526020019081526020016000206000808201600090556001820160006101000a81549073ffffffffffffffffffffffffffffffffffffffff02191690556002820160006101000a81549073ffffffffffffffffffffffffffffffffffffffff021916905560038201600090556004820160006101000a81549060ff021916905550505050565b60036020528060005260406000206000915090508060000154908060010160009054906101000a900473ffffffffffffffffffffffffffffffffffffffff16908060020160009054906101000a900473ffffffffffffffffffffffffffffffffffffffff16908060030154908060040160009054906101000a900460ff16905085565b6060600061046d6002610af0565b67ffffffffffffffff811115610486576104856112a2565b5b6040519080825280602002602001820160405280156104bf57816020015b6104ac610d98565b8152602001906001900390816104a45790505b50905060005b6104cf6002610af0565b81101561060057600360008281526020019081526020016000206040518060a0016040529081600082015481526020016001820160009054906101000a900473ffffffffffffffffffffffffffffffffffffffff1673ffffffffffffffffffffffffffffffffffffffff1673ffffffffffffffffffffffffffffffffffffffff1681526020016002820160009054906101000a900473ffffffffffffffffffffffffffffffffffffffff1673ffffffffffffffffffffffffffffffffffffffff1673ffffffffffffffffffffffffffffffffffffffff168152602001600382015481526020016004820160009054906101000a900460ff1615151515815250508282815181106105e2576105e16112d1565b5b602002602001018190525080806105f89061132f565b9150506104c5565b508091505090565b610610610afe565b61061a6000610b7c565b565b610624610c40565b60008111610667576040517f08c379a000000000000000000000000000000000000000000000000000000000815260040161065e906113c3565b60405180910390fd5b8273ffffffffffffffffffffffffffffffffffffffff166323b872dd3330856040518463ffffffff1660e01b81526004016106a49392919061126b565b600060405180830381600087803b1580156106be57600080fd5b505af11580156106d2573d6000803e3d6000fd5b505050506040518060a001604052808381526020018473ffffffffffffffffffffffffffffffffffffffff1681526020013373ffffffffffffffffffffffffffffffffffffffff168152602001828152602001600015158152506003600061073a6002610af0565b81526020019081526020016000206000820151816000015560208201518160010160006101000a81548173ffffffffffffffffffffffffffffffffffffffff021916908373ffffffffffffffffffffffffffffffffffffffff16021790555060408201518160020160006101000a81548173ffffffffffffffffffffffffffffffffffffffff021916908373ffffffffffffffffffffffffffffffffffffffff1602179055506060820151816003015560808201518160040160006101000a81548160ff0219169083151502179055509050506108176002610c8f565b61085f6040518060400160405280601781526020017f4c697374696e67206974656d207769746820696420257300000000000000000081525061085a6002610af0565b610ca5565b610867610d41565b505050565b60008060009054906101000a900473ffffffffffffffffffffffffffffffffffffffff16905090565b6000600360008381526020019081526020016000209050600015158160040160009054906101000a900460ff16151514610904576040517f08c379a00000000000000000000000000000000000000000000000000000000081526004016108fb906111df565b60405180910390fd5b3481600301541461094a576040517f08c379a00000000000000000000000000000000000000000000000000000000081526004016109419061142f565b60405180910390fd5b8060010160009054906101000a900473ffffffffffffffffffffffffffffffffffffffff1673ffffffffffffffffffffffffffffffffffffffff166323b872dd303384600001546040518463ffffffff1660e01b81526004016109af9392919061126b565b600060405180830381600087803b1580156109c957600080fd5b505af11580156109dd573d6000803e3d6000fd5b5050505060018160040160006101000a81548160ff0219169083151502179055508060020160009054906101000a900473ffffffffffffffffffffffffffffffffffffffff1673ffffffffffffffffffffffffffffffffffffffff166108fc349081150290604051600060405180830381858888f19350505050158015610a68573d6000803e3d6000fd5b505050565b610a75610afe565b600073ffffffffffffffffffffffffffffffffffffffff168173ffffffffffffffffffffffffffffffffffffffff1603610ae4576040517f08c379a0000000000000000000000000000000000000000000000000000000008152600401610adb906114c1565b60405180910390fd5b610aed81610b7c565b50565b600081600001549050919050565b610b06610d4a565b73ffffffffffffffffffffffffffffffffffffffff16610b2461086c565b73ffffffffffffffffffffffffffffffffffffffff1614610b7a576040517f08c379a0000000000000000000000000000000000000000000000000000000008152600401610b719061152d565b60405180910390fd5b565b60008060009054906101000a900473ffffffffffffffffffffffffffffffffffffffff169050816000806101000a81548173ffffffffffffffffffffffffffffffffffffffff021916908373ffffffffffffffffffffffffffffffffffffffff1602179055508173ffffffffffffffffffffffffffffffffffffffff168173ffffffffffffffffffffffffffffffffffffffff167f8be0079c531659141344cd1fd0a4f28419497f9722a3daafe3b4186f6b6457e060405160405180910390a35050565b600260015403610c85576040517f08c379a0000000000000000000000000000000000000000000000000000000008152600401610c7c90611599565b60405180910390fd5b6002600181905550565b6001816000016000828254019250508190555050565b610d3d8282604051602401610cbb929190611638565b6040516020818303038152906040527fb60e72cc000000000000000000000000000000000000000000000000000000007bffffffffffffffffffffffffffffffffffffffffffffffffffffffff19166020820180517bffffffffffffffffffffffffffffffffffffffffffffffffffffffff8381831617835250505050610d52565b5050565b60018081905550565b600033905090565b610d6981610d61610d6c610d8d565b63ffffffff16565b50565b60006a636f6e736f6c652e6c6f679050600080835160208501845afa505050565b610df5819050919050565b6040518060a0016040528060008152602001600073ffffffffffffffffffffffffffffffffffffffff168152602001600073ffffffffffffffffffffffffffffffffffffffff168152602001600081526020016000151581525090565b610dfd611668565b565b600080fd5b6000819050919050565b610e1781610e04565b8114610e2257600080fd5b50565b600081359050610e3481610e0e565b92915050565b600060208284031215610e5057610e4f610dff565b5b6000610e5e84828501610e25565b91505092915050565b610e7081610e04565b82525050565b600073ffffffffffffffffffffffffffffffffffffffff82169050919050565b6000610ea182610e76565b9050919050565b610eb181610e96565b82525050565b6000610ec282610e76565b9050919050565b610ed281610eb7565b82525050565b60008115159050919050565b610eed81610ed8565b82525050565b600060a082019050610f086000830188610e67565b610f156020830187610ea8565b610f226040830186610ec9565b610f2f6060830185610e67565b610f3c6080830184610ee4565b9695505050505050565b600081519050919050565b600082825260208201905092915050565b6000819050602082019050919050565b610f7b81610e04565b82525050565b610f8a81610e96565b82525050565b610f9981610eb7565b82525050565b610fa881610ed8565b82525050565b60a082016000820151610fc46000850182610f72565b506020820151610fd76020850182610f81565b506040820151610fea6040850182610f90565b506060820151610ffd6060850182610f72565b5060808201516110106080850182610f9f565b50505050565b60006110228383610fae565b60a08301905092915050565b6000602082019050919050565b600061104682610f46565b6110508185610f51565b935061105b83610f62565b8060005b8381101561108c5781516110738882611016565b975061107e8361102e565b92505060018101905061105f565b5085935050505092915050565b600060208201905081810360008301526110b3818461103b565b905092915050565b6110c481610e96565b81146110cf57600080fd5b50565b6000813590506110e1816110bb565b92915050565b600080600060608486031215611100576110ff610dff565b5b600061110e868287016110d2565b935050602061111f86828701610e25565b925050604061113086828701610e25565b9150509250925092565b600060208201905061114f6000830184610ea8565b92915050565b60006020828403121561116b5761116a610dff565b5b6000611179848285016110d2565b91505092915050565b600082825260208201905092915050565b7f4974656d20697320616c726561647920736f6c64000000000000000000000000600082015250565b60006111c9601483611182565b91506111d482611193565b602082019050919050565b600060208201905081810360008301526111f8816111bc565b9050919050565b7f4f6e6c792073656c6c65722063616e2063616e63656c206c697374696e670000600082015250565b6000611235601e83611182565b9150611240826111ff565b602082019050919050565b6000602082019050818103600083015261126481611228565b9050919050565b60006060820190506112806000830186610ea8565b61128d6020830185610ea8565b61129a6040830184610e67565b949350505050565b7f4e487b7100000000000000000000000000000000000000000000000000000000600052604160045260246000fd5b7f4e487b7100000000000000000000000000000000000000000000000000000000600052603260045260246000fd5b7f4e487b7100000000000000000000000000000000000000000000000000000000600052601160045260246000fd5b600061133a82610e04565b91507fffffffffffffffffffffffffffffffffffffffffffffffffffffffffffffffff820361136c5761136b611300565b5b600182019050919050565b7f5072696365206d7573742062652067726561746572207468616e203000000000600082015250565b60006113ad601c83611182565b91506113b882611377565b602082019050919050565b600060208201905081810360008301526113dc816113a0565b9050919050565b7f5072696365206973206e6f7420636f7272656374000000000000000000000000600082015250565b6000611419601483611182565b9150611424826113e3565b602082019050919050565b600060208201905081810360008301526114488161140c565b9050919050565b7f4f776e61626c653a206e6577206f776e657220697320746865207a65726f206160008201527f6464726573730000000000000000000000000000000000000000000000000000602082015250565b60006114ab602683611182565b91506114b68261144f565b604082019050919050565b600060208201905081810360008301526114da8161149e565b9050919050565b7f4f776e61626c653a2063616c6c6572206973206e6f7420746865206f776e6572600082015250565b6000611517602083611182565b9150611522826114e1565b602082019050919050565b600060208201905081810360008301526115468161150a565b9050919050565b7f5265656e7472616e637947756172643a207265656e7472616e742063616c6c00600082015250565b6000611583601f83611182565b915061158e8261154d565b602082019050919050565b600060208201905081810360008301526115b281611576565b9050919050565b600081519050919050565b60005b838110156115e25780820151818401526020810190506115c7565b60008484015250505050565b6000601f19601f8301169050919050565b600061160a826115b9565b6116148185611182565b93506116248185602086016115c4565b61162d816115ee565b840191505092915050565b6000604082019050818103600083015261165281856115ff565b90506116616020830184610e67565b9392505050565b7f4e487b7100000000000000000000000000000000000000000000000000000000600052605160045260246000fdfea2646970667358221220bf70278d87087220ddfbaeaffd1492606f7fcb0109fd3a2248c193c22bbee0cc64736f6c63430008110033",
  "linkReferences": {},
  "deployedLinkReferences": {}
}